:02000000212EAF
:0E000600213083120313FD00FD0B07280800B4
:100014000F3083120313FC004730FD00FD0B102842
:0A002400FC0B10280000000008008B
:06002E00000000000800C4
:10003400831203179B1B21280313871123280313FF
:10004400871503171B1B2928031307112B280313D8
:10005400071503179B1A312803138710332803133A
:10006400871403171B1A3928031307103B2803139B
:1000740007146F183F280716402807128716172001
:10008400871203179B194928031387114B2803135D
:10009400871503171B19512803130711532803133A
:1000A400071503179B185928031387105B2803139C
:1000B400871403171B1861280313071063280313FD
:1000C40007146F1867280716682807128716172061
:0E00D40087126F1C6F280A2070280320080076
:1000E200FB14FB1F7B28FF30F300F200F100F0004D
:0800F200FA0DF20CFF300800CA
:0E00FA00F201F101F001F801F30100300800FD
:08010800FA1FF2130030080099
:100110007B15FB1F92280130F300F201F101F00181
:08012000FA0DF20CFF3008009B
:1001280083120313FB017308031D77080319EB28D7
:1001380072087606FA007708F3077E30031CA828B1
:10014800F3020318EE28AB28F302031CF128720807
:10015800F8007108FC007008FD00F817F617031086
:10016800F201F101F0011830A0007D1CC5287408C7
:10017800F00775080318750FF10776080318760F4E
:10018800F207F20CF10CF00CF80CFC0CFD0C03104F
:10019800A00BB928F21BD528F80DF00DF10DF20DC2
:1001A800F3037B1B701CE728F81FE728F00A0319E4
:1001B800F10A0319F20A031DE728F20CF10CF00CFE
:1001C800F30A0319EE28FA1FF2130030F32801305E
:1001D8007D20F32802307120F328043088200000A5
:0201E80008000D
:1001EA00831203136F10031719089B001A206F1448
:0201FA000800FB
:1001FC0083120313FA017308031D7A147708031D85
:10020C00FA147A0803194A29033A031915297A189A
:10021C001229F61F48294629F21F46294829720837
:10022C008039FA00F21376088039F6137A0603192E
:10023C0023297A08031946294829770873020319D8
:10024C002A29031C3E2942297608720203193129F6
:10025C00031C3E2942297508710203193829031C15
:10026C003E2942297408700203194A2903184229AD
:10027C00FA08031948294629FA0803194629482976
:10028C0003140800031008000314031508000800E9
:10029C0083120313F8010830FC00700DF80D74087C
:1002AC00F80203185B29F8070310F00DFC0B532917
:0202BC00080038
:1002BE00831203171908F2007208F100F20A1A08E5
:1002CE00F0009A0A700884000008F000710884009B
:1002DE0070088000710884000008031977296329CB
:0602EE001908F0000800F1
:1002F4000E3083120313FD00FD0B7E29000008005D
:10030400A0017208031D97297108F2007008F1001A
:10031400F001A0157208031D97297108F200F1017C
:10032400A011201672080319A5292008F302031D41
:10033400031CA9290310F21BAD29F00DF10DF20DD8
:10034400F30B9D29A9290130FC007D20B02902303E
:0E035400FC008820B0290430FC008420080042
:10036200C329803083160313EC00D629C030EC0079
:10037200D6299430EC00D629D430EC00D62980302E
:10038200EC00D629831603136C08013A0319B2292B
:100392006C08023A0319B7296C08033A0319BA29FF
:1003A2006C08043A0319BD29C0296D03F0006C08DA
:1003B200F0077008EC0083126F14700803179B009B
:1003C2001A206F1083166E08831203179B001A20DF
:0403D2006F1408009C
:1003D60083160313EE01EF0183120317100895002D
:1003E6001108960012089700130898001808FF3A9B
:1003F600031D072A1708FF3A031D072A1608FF3AA6
:10040600031D072A1508FF3A031D112A140899002F
:1004160058309A005F210330F000242C01308316F7
:100426000313EC0083120317971F282A8030170640
:10043600F0007008970083160313EC0A8312031763
:10044600140884002D308000940A0030F00018064D
:10045600031D372A70081706031D372A700816066B
:10046600031D372A1508003A031D402A140899006F
:100476005C309A005F21F001242C1808FF3A031D16
:100486004E2A1708003A031D4E2A1608003A031D85
:100496004E2A1508003A031D5A2A140899005E30A0
:1004A6009A005F21831603136C08F000242C003099
:1004B600F4000030F5000030F6007F30F7008312BC
:1004C60003171508F0001608F1001708F2001808BF
:1004D600F300FE20013003180030F0007008031905
:1004E600932A03171508F0001608F1001708F20002
:1004F6001808F3000030F4000030F5002030F60054
:100506008230F70094207008031795007108960052
:10051600720897007308980083160313EF035A2A8C
:100526000030F4000030F5002030F6008230F7008D
:10053600831203171508F0001608F1001708F200D9
:100546001808F300FE200130031C0030F00070088C
:100556000319CC2A03171508F0001608F10017082E
:10056600F2001808F300CD30F400CC30F5004C3022
:10057600F6007B30F7009420700803179500710889
:100586009600720897007308980083160313EF0A03
:10059600932AFF30831203171505F800FF3016055E
:1005A600F9007F301705FA0000301805FB007808BF
:1005B600F4007908F5007A08F6007B08F700F40DD8
:1005C600F50DF60DF70D741000301505F00000302E
:1005D6001605F10000301705F200FF301805F3008C
:1005E60070089500710896007208970073089800C5
:1005F60074081504F00075081604F100760817044F
:10060600F20077081804F300700895007108960048
:1006160072089700730898007F301802F00070087F
:1006260083160313ED000130831203179800700838
:10063600F4001508F0001608F1001708F200180873
:10064600F300740803192E2BF00DF10DF20DF30DC6
:100656007010FF3E252B8312031770089500710852
:10066600960072089700730898001808303EF0004C
:100676001408840070088000940A803083160313DF
:100686006F06F0008030013A7002031C532B803055
:10069600063AF00080306F067002031C532B5E2B67
:1006A60083120317140884002E308000940A013048
:1006B60083160313EE000630ED006D08003A0319A9
:1006C600C42B8312031798011508F0001608F100D1
:1006D6001708F2001808F300F00DF10DF20DF30DF6
:1006E6007010F00DF10DF20DF30D70101508F007F6
:1006F60016080318160FF10717080318170FF20745
:1007060018080318180FF30770089500710896006B
:1007160072089700730898001508F0001608F10093
:100726001708F2001808F300F00DF10DF20DF30DA5
:10073600701070089500710896007208970073088B
:1007460098001808303EF0001408840070088000F5
:10075600940A831603136E08003A031DC22BEF0397
:100766006F08003A031DC22B831203171408840076
:100776002E308000940A013083160313EE00ED0339
:10078600602BFF3083120317140784000008303AE9
:10079600031DCF2B9403C42BFF30140784000008DD
:1007A6002E3A031DD72B9403831603136F08003AC2
:1007B60003191E2C83120317140884006530800069
:1007C600940A8030831603136F06F0008030003AD7
:1007D60070020318FA2B83120317140884002D30B5
:1007E6008000940A831603136F08003CEF006F081D
:1007F600ED006F08093C03180D2C0A30F4006D0853
:10080600F0004E213030F0070317140884007008FA
:100816008000940A0A30F400831603136D08F00072
:100826004E217808F0003030F007031714088400D2
:1008360070088000940A831203171408840080014C
:04084600F0010800B5
:10084A00C330831203139F052108F000F00D7010C6
:10085A00F00D701070089F047A219F149F1C372C8A
:10086A000000332C1E08F100F00183161E08F00464
:06087A000030F10408004B
:10088000831203137008F8007108F000F101F201FF
:10089000F301FB01FC019630F300FA017008F1004E
:0C08A0007808F000F801F2018221080045
:1008AC00682C803083160313EC007B2CC030EC00DA
:1008BC007B2C9430EC007B2CD430EC007B2C8030E7
:1008CC00EC007B2C831603136C08013A0319572C8C
:1008DC006C08023A03195C2C6C08033A03195F2C60
:1008EC006C08043A0319622C652C6D03F0006C083B
:1008FC00F0077008EC007008831203179B001A2095
:10090C006F108316EF016F086E078400000803193F
:10091C009A2C6F086E078400000883120317990045
:0E092C00F5208316EF0A892C83126F14080041
:0E093A008316031357088A005608820008002F
:100948000130831203179B001A200C3003179B00F9
:100958001A2001308316EC000330ED004330EE001E
:1009680056240830FB001B30FC002730FD00FD0B2F
:10097800BB2CFC0BBB2CFB0BBB2C013003179B00C7
:100988001A2001308316EC000230ED003B30EE00F7
:10099800562402308316EC000130ED002230EE00C0
:1009A80056240B30FB002630FC005D30FD00FD0BAB
:1009B800DB2CFC0BDB2CFB0BDB2C000000000130DC
:1009C80003179B001A2001308316EC000430ED0059
:1009D8004E30EE00562402308316EC000130ED0054
:1009E800B730EE0056240B30FB002630FC005D309B
:1009F800FD00FD0BFD2CFC0BFD2CFB0BFD2C000062
:100A08000000013003179B001A2001308316EC0008
:100A18000130ED00A030EE0056240530FB000F3009
:100A2800FC00F130FD00FD0B172DFC0B172DFB0B07
:100A3800172D03308316EA000030EB008030F000F9
:100A480080306B067002031D2B2D6A08003C0318CA
:100A5800462D1830831203179B001A200630FB001E
:100A68001330FC00AD30FD00FD0B382DFC0B382D8C
:100A7800FB0B382D0000000001308316EA02031C2E
:100A8800EB03222D0130831203179B001A2001303B
:100A98008316EC000130ED006230EE00562402307F
:100AA8008316EC000930ED00CA30EE00B1210230A7
:100AB8008316EC000E30ED00CE30EE00B12102308E
:100AC800FB000430FC00BA30FD00FD0B692DFC0B67
:0A0AD800692DFB0B692D00000800DA
:100AE2008316031387120712071087100711871145
:100AF20083128712071287110711871007100A2025
:100B02000A200A20871407148716172087120A2042
:100B12008716172087120A208716172087120A20A5
:100B220007108716172087120A20871617208712A8
:100B3200871087158716172087120A208711071436
:100B420087161720871207108716172087120A2088
:100B520087161720871207148716172087120A2074
:100B62000710871617208712871507158714071491
:0C0B72008716172087120A206F14080055
:100B7E0083120313A10125247008D4007108D50037
:100B8E000730FB001730FC006A30FD00FD0BCD2D49
:100B9E00FC0BCD2DFB0BCD2D00005408F00055089D
:100BAE00F1004024AB30F400CF30F5005530F600A4
:100BBE007930F700942070088316D0007108D100A8
:100BCE007208D2007308D3007008831203179000C6
:100BDE00710891007208920073089300DB30940044
:100BEE00EB21023083160313EC000130ED00DB30F5
:060BFE00EE005624080081
:100C0400253083160313D8000430D9002130DA00CC
:100C14000030C33083129F05C0309F0083169F1796
:060C240083121F140800FA
:100C2A009D248A110A128000840AD60A0319D70A57
:080C3A00F003031D152E080054
:100C4200D226013083160317880089010313051485
:100C5200831203178713881302264230FD00FD0B0F
:100C6200302E00007125A424BF258230FC00DD3027
:100C7200FD00FD0B3A2EFC0B3A2E00000000352E33
:020C8200412E01
:100DA40022308400403083120313F000473083164E
:100DB400D6000630D7001526A030840030308312C8
:100DC400F00087308316D6000630D700152662302F
:100DD40084000D308312F000B7308316D60006303D
:100DE400D7001526D030840006308312F000C430BA
:0C0DF4008316D6000630D7001526080034
:100C8E004C34413442344F345234413454344F3462
:100C9E00523449344F3420344434453420344634AD
:100CAE00493453344934433441342034493449347B
:020CBE00003400
:100CC00041346C3475346D346E346F343A340034DE
:100CD000493450344E3420342D3420344534533488
:060CE00046344D340034DF
:100CE600503472346F346634653473346F3472340E
:040CF6003A34003458
:080CFA004E3461344E34003425
:040D02003034003455
:080D060049344E344634003438
:100D0E00503472346F3479346534633474346F34E0
:100D1E002034733465346E3473346F34723420344B
:0E0D2E00643465342034673461347334003427
:100D3C00533461346C347634613464346F347234CB
:100D4C002034543469347234613464346F34203454
:100D5C004734753465347234723461342E34203433
:020D6C00003451
:100D6E004734413453343A34203441346C34633490
:0A0D7E006F3468346F346C340034B5
:080D8800003400340034003493
:040D900000340034F7
:080D9400703470346D3400343A
:080D9C00703470346D34003432
:04400E00D42F0006A5
:00000001FF
