:020000040000FA
:10000000A62DFF3FFF3F103083120313FD00FD0BB1
:10001000072800000800083083120313FC00233077
:10002000FD00FD0B1128FC0B112808000000080042
:1000300083160313C21B1F288312871121288312E2
:1000400087158316421B272883120711292883123C
:1000500007158316C21A2F2883128710312883129E
:1000600087148316421A37288312071039288312FF
:1000700007146E183D2807163E280712871616200B
:1000800087128316C21947288312871149288312C1
:100090008715831642194F2883120711512883129E
:1000A00007158316C2185728831287105928831200
:1000B0008714831642185F28831207106128831261
:1000C00007146E186528071666280712871616206B
:1000D00087126E1C6D280B206E2803200800FB146D
:1000E000FB1F7928FF30F300F200F100F000FA0D59
:1000F000F20CFF300800F201F101F001F801F30108
:1001000000300800FA1FF213003008007B15FB1FB7
:1001100090280130F300F201F101F001FA0DF20C28
:10012000FF30080083120313FB017308031D7708D7
:100130000319E92872087606FA007708F3077E307B
:10014000031CA628F3020318EC28A928F302031CB9
:10015000EF287208F8007108FC007008FD00F8171D
:10016000F6170310F201F101F0011830A0007D1C18
:10017000C3287408F00775080318750FF10776088F
:100180000318760FF207F20CF10CF00CF80CFC0CD3
:10019000FD0C0310A00BB728F21BD328F80DF00DAF
:1001A000F10DF20DF3037B1B701CE528F81FE52809
:1001B000F00A0319F10A0319F20A031DE528F20CEB
:1001C000F10CF00CF30A0319EC28FA1FF2130030BB
:1001D000F12801307B20F12802306F20F128043013
:1001E000862000000800831203136E108316400857
:1001F000C20018206E14080083120313FA0173085A
:10020000031D7A147708031DFA147A080319482984
:10021000033A031913297A181029F61F462944298D
:10022000F21F4429462972088039FA00F213760831
:100230008039F6137A06031921297A08031944290B
:1002400046297708730203192829031C3C294029F1
:100250007608720203192F29031C3C2940297508CE
:10026000710203193629031C3C29402974087002C5
:100270000319482903184029FA0803194629442973
:10028000FA0803194429462903140800031008003A
:10029000031403150800080083120313F801083043
:1002A000FC00700DF80D7408F80203185929F807BE
:1002B0000310F00DFC0B51290800831603134008AE
:1002C000F2007208F100F20A4108F000C10A700859
:1002D00084000008F0007108840070088000710834
:1002E000840000080319752961294008F0000800FE
:1002F000073083120313FD00FD0B7C290800A001C9
:100300007208031D94297108F2007008F100F001D1
:10031000A0157208031D94297108F200F101A011C3
:10032000201672080319A2292008F302031D031CDA
:10033000A6290310F21BAA29F00DF10DF20DF30B03
:100340009A29A6290130FC007B20AD290230FC004F
:100350008620AD290430FC0082200800C0298030AE
:1003600083160313B400D329C030B400D3299430CA
:10037000B400D329D430B400D3298030B400D329B9
:10038000831603133408013A0319AF293408023ADB
:100390000319B4293408033A0319B7293408043A75
:1003A0000319BA29BD293503F0003408F007700895
:1003B000B40083126E1470088316C20018206E10E9
:1003C00083163608C20018206E1408008316031323
:1003D000BE01BF013408BA003508BB003608BC00B6
:1003E0003708BD003D08FF3A031D002A3C08FF3ACC
:1003F000031D002A3B08FF3A031D002A3A08FF3A72
:10040000031D0A2A3808C0003B30C1005D210330BB
:10041000F000ED2B01308312EF008316BC1F1D2A64
:1004200080303C06F0007008BC008312EF0A83168F
:10043000380884002D308000B80A0030F0003D06F6
:10044000031D2C2A70083C06031D2C2A70083B064D
:10045000031D2C2A3A08003A031D352A3808C0002B
:100460003F30C1005D21F001ED2B3D08FF3A031D37
:10047000432A3C08003A031D432A3B08003A031D67
:10048000432A3A08003A031D4E2A3808C00041307A
:10049000C1005D2183126F08F000ED2B0030F400E5
:1004A0000030F5000030F6007F30F70083163A0880
:1004B000F0003B08F1003C08F2003D08F300FC208E
:1004C000013003180030F00070080319842A8316E5
:1004D0003A08F0003B08F1003C08F2003D08F30048
:1004E0000030F4000030F5002030F6008230F700D4
:1004F000922070088316BA007108BB007208BC0015
:100500007308BD00BF034E2A83160030F40000308C
:10051000F5002030F6008230F7003A08F0003B0882
:10052000F1003C08F2003D08F300FC200130031C00
:100530000030F00070080319BA2A83163A08F00058
:100540003B08F1003C08F2003D08F300CD30F40018
:10055000CC30F5004C30F6007B30F700922070086C
:100560008316BA007108BB007208BC007308BD0096
:10057000BF0A842A8316FF303A05F800FF303B0596
:10058000F9007F303C05FA0000303D05FB0078089B
:10059000F4007908F5007A08F6007B08F700F40DFE
:1005A000F50DF60DF70D741000303A05F00000302F
:1005B0003B05F10000303C05F200FF303D05F30043
:1005C0007008BA007108BB007208BC007308BD0057
:1005D00074083A04F00075083B04F10076083C0406
:1005E000F20077083D04F3007008BA007108BB0000
:1005F0007208BC007308BD007F303D02F000700837
:10060000B9000130BD007008F4003A08F0003B0862
:10061000F1003C08F2003D08F30074080319172BA1
:10062000F00DF10DF20DF30D7010FF3E0E2B700862
:10063000BA007108BB007208BC007308BD003D0819
:10064000303EF0003808840070088000B80A80301E
:100650003F06F0008030013A7002031C382B8030D6
:10066000063AF00080303F067002031C382B3F2B07
:10067000380884002E308000B80A0130BE000630F1
:10068000B9003908003A03199D2BBD013A08F00062
:100690003B08F1003C08F2003D08F300F00DF10DBD
:1006A000F20DF30D7010F00DF10DF20DF30D701051
:1006B0003A08F0073B0803183B0FF1073C08031802
:1006C0003C0FF2073D0803183D0FF3077008BA000E
:1006D0007108BB007208BC007308BD003A08F00046
:1006E0003B08F1003C08F2003D08F300F00DF10D6D
:1006F000F20DF30D70107008BA007108BB0072089B
:10070000BC007308BD003D08303EF000380884008E
:1007100070088000B80A3E08003A031D9B2BBF03F7
:100720003F08003A031D9B2B380884002E308000C0
:10073000B80A0130BE00B903412BFF3038078400EE
:100740000008303A031DA62BB8039D2BFF30380755
:10075000840000082E3A031DAE2BB8033F08003A70
:100760000319E92B3808840065308000B80A80300E
:100770003F06F0008030003A70020318C72B38089B
:1007800084002D308000B80A3F08003CBF003F08BD
:10079000B9003F08093C0318DA2B0A30F400390885
:1007A000F0004C213030F0078316380884007008C0
:1007B0008000B80A0A30F4003908F0004C217808AB
:1007C000F0003030F007831638088400700880008D
:1007D000B80A380884008001F0010800C330831291
:1007E00003139F052108F000F00D7010F00D70103C
:1007F00070089F0478219F149F1C002C0000FC2B84
:100800001E08F100F00183161E08F0040030F10408
:100810000800831203137008F8007108F000F1015A
:10082000F201F301FB01FC019630F300FA017008BC
:10083000F1007808F000F801F2017F210800312C66
:10084000803083160313B400442CC030B400442C11
:100850009430B400442CD430B400442C8030B40024
:10086000442C831603133408013A0319202C34084E
:10087000023A0319252C3408033A0319282C3408AA
:10088000043A03192B2C2E2C3503F0003408F00702
:100890007008B4007008C20018206E10EF016F08D5
:1008A00083163607840000080319602C83126F0832
:1008B0008316360784000008C000F320EF0A4F2C8F
:1008C00083126E140800831203136D088A006C08EB
:1008D00082000800013083160313C20018200C3078
:1008E0008316C200182001308316B4000330B5000F
:1008F0002230B6001F2402308316B4000230B50047
:100900002D30B6001F240630FB001330FC00AD3044
:10091000FD00FD0B892CFC0B892CFB0B892C0000A6
:10092000000001308316C200182001308316B40085
:100930000130B5004530B6001F240330FB000830FD
:10094000FC007730FD00FD0BA32CFC0BA32CFB0B54
:10095000A32C03308316B2000030B3008030F000C7
:10096000803033067002031DB72C3208003C031898
:10097000D02C1830C20018200330FB008A30FC0055
:100980005530FD00FD0BC22CFC0BC22CFB0BC22C06
:100990000000000001308316B202031CB303AE2C2A
:1009A0000130C200182001308316B4000130B500B8
:1009B0005830B6001F2402308316B4000930B50049
:1009C000DF30B600AE2102308316B4000A30B50025
:1009D0004330B600AE218230FC00DD30FD00FD0B5F
:1009E000EF2CFC0BEF2C0000000008008316031313
:1009F00087120712071087100711871183128712B9
:100A0000071287110711871007100B200B200B20EE
:100A1000871407148716162087120B2087161620B6
:100A200087120B208716162087120B2007108716B7
:100A3000162087120B20871616208712871087151D
:100A40008716162087120B20871107148716162089
:100A5000871207108716162087120B20871616207C
:100A6000871207148716162087120B200710871687
:100A70001620871287150715871407148716162066
:100A800087120B206E14080083120313A101EE23BA
:100A900070088312EA007108EB000430FB000C3090
:100AA000FC003330FD00FD0B532DFC0B532DFB0BD5
:100AB000532D000000006A08F0006B08F1000924C3
:100AC0002330F400DB30F5007930F6007D30F7009C
:100AD00092207008E6007108E7007208E8007308C9
:100AE000E90070088316B4007108B5007208B600FA
:100AF0007308B700A330B800E62102308316031351
:100B0000B4000130B500A330B6001F240800EE3059
:100B100083160313A0000330A1002130A20000308F
:100B2000C33083129F05C0309F0083169F17831226
:100B30001F14080063248A110A128000840AEC0A38
:100B40000319ED0AF003031D9A2D08001426013045
:100B500083160317880089010313051483120317F2
:100B60008713881387252130FD00FD0BB52DF62452
:100B70006A2444254130FC00EE30FD00FD0BBE2D03
:100B8000FC0BBE2D0000B92DC42DFF3FFF3FFF3FE2
:100B9000FF3FFF3F493450344E3420342D3420344D
:100BA0004534533446344D3400344A3461347A3455
:100BB000693465346C34203446346C346F347234A8
:100BC0006534733400344E3461344E340034303480
:100BD000003449344E34463400345434653472346D
:100BE0006D34F3346D346534743472346F342034BE
:100BF0004434693467346934743461346C34003497
:100C0000543465346D347034653472346134743402
:100C10007534723461343A34203400340034003492
:100C20000034003400340034223084004A3083120F
:100C30000313F000CA30EC000530ED009A250800DF
:100C4000FF3FFF3FFF3FFF3FFF3FFF3FFF3FFF3FB4
:100C5000FF3FFF3FFF3FFF3FFF3FFF3FFF3FFF3FA4
:100C6000FF3FFF3FFF3FFF3FFF3FFF3FFF3FFF3F94
:100C7000FF3FFF3FFF3FFF3FFF3FFF3FFF3FFF3F84
:04400E00D4200007B3
:08400000FF3FFF3FFF3FFF3FC0
:00000001FF
